:020000040000FA
:020000001E28B8
:040002000034003492
:08000800BB000308BC008312D9
:1000100003130B1D19280B113A18142886173908D9
:1000200087003A14061319280617380887003A1073
:1000300086133C088300BB0E3B0E09008312031796
:100040009E019F011E14831603138501293085002C
:1000500087018601B801B901BA0183120313851023
:1000600005158316031381128111011181140114E6
:10007000831203138B168B170330B3003308CA2087
:10008000B9000516B9200512B920B920851E4928E6
:100090004E28B30B3E280330B3003E283308013C02
:1000A000031D57281B30B5003230B60068283308CE
:1000B000033C031960281E30B5004B30B600682899
:1000C0003308023C03193E281C30B5005A30B600F4
:1000D000051185148130D920BD00B001B401023072
:1000E000BD02031C7528B40A6F2834081A3C031C8F
:1000F000B4033408350203198D280A30B402031CF6
:100100008328B00A75283008CA20B80034080A3E8F
:10011000CA20B9000330B9204E28B8010530B30019
:10012000B8013308CA20B9003230B920B30B912886
:100130000616B0013608B1000A30B102031CA2282D
:10014000B00A9C283008CA20B80031080A3ECA20EC
:10015000B9003230B920B001B101B60B9A28831230
:10016000031306120515051585100330B300B801F9
:100170003E280A30B2006430B100F930B00000000F
:10018000B00BBF28B10BBD28B20BC7280800851ED5
:10019000BB280800B70000308A00370882073F34C8
:1001A00006345B344F3466346D347D3407347F3429
:1001B0006734831203139F00E8200C139F140C1F55
:1001C000DF280C13831603131E0883120313080081
:0A01D0001430B000B00BEA2808005C
:02400E00C430BC
:00000001FF
